:020000040800F2
:10000000B00800209D010008331D00080F180008EB
:10001000311D0008CF060008ED2100080000000097
:10002000000000000000000000000000911E000819
:10003000D106000800000000351D0008931E0008CE
:10004000B7010008B7010008B7010008B7010008B0
:10005000B7010008B7010008B7010008B7010008A0
:10006000B7010008B7010008B7010008B701000890
:10007000B7010008B7010008B7010008B701000880
:10008000B7010008B7010008B7010008B701000870
:10009000B7010008B7010008B7010008B701000860
:1000A000B7010008B7010008B7010008B701000850
:1000B000B7010008B7010008F91E0008B7010008E1
:1000C000B7010008B7010008B7010008B701000830
:1000D000B7010008B7010008B7010008B701000820
:1000E000B7010008B7010008B701000800F002F8E6
:1000F00000F045F80AA090E8000C82448344AAF17D
:100100000107DA4501D100F03AF8AFF2090EBAE87A
:100110000F0013F0010F18BFFB1A43F0010318473B
:100120003024000050240000103A24BF78C878C161
:10013000FAD8520724BF30C830C144BF04680C60ED
:10014000704700000023002400250026103A28BF35
:1001500078C1FBD8520728BF30C148BF0B60704739
:10016000642900F0AD80782900F0E680732900F062
:100170005E82002070471FB51FBD10B510BD00F096
:100180006DFA1146FFF7F7FF02F064F800F08BFA02
:1001900003B4FFF7F2FF03BC00F092FA094880476E
:1001A00009480047FEE7FEE7FEE7FEE7FEE7FEE759
:1001B000FEE7FEE7FEE7FEE704480549054A064B71
:1001C00070470000F51E0008ED000008B002002096
:1001D000B0080020B0040020B00400200FB404498F
:1001E00010B503AA029800F027FA10BC5DF814FBC2
:1001F000080100200FB41CB5084B06AA7B446946D1
:100200000090059800F0E9F904460020694600F0E6
:10021000F7F920461CBC5DF814FB00000104000047
:1002200070B5044685690068C10601D5302600E036
:100230002026C00707D070BDD4E901213046904781
:10024000206A401C20626D1EF6D570BD70B5044654
:1002500085690078C00707D170BDD4E9012120204D
:100260009047206A401C20626D1EF6D570BD70B5A7
:100270000C460546012A05D02878800600D5EA6993
:10028000002302E0012305E05B1C934202D2E05C04
:100290000028F9D1A869E618C01AA861286A18448C
:1002A00028622846FFF7BCFF04E0D5E9012114F8D5
:1002B000010B9047B442F8D32846FFF7C7FF70BD43
:1002C0002DE9F0410646002410687529314616A52F
:1002D00010D0AFF30080002802DA404213A507E0F7
:1002E00031688A0701D512A502E0490704D511A596
:1002F000012401E0AFF3008000210A2206F1240767
:1003000009E0B0FBF2FCB0FBF2F302FB1C00303062
:1003100078541846491C0028F3D123462A46304613
:10032000BDE8F04100F0FAB8000000002D00000028
:100330002B0000002000000070B504460D46214649
:100340001068AFF300802188090502D50F4A7A446E
:1003500002E00E4A7A440E32002104F1240305E043
:1003600000F00F060009965D5E54491C0028F7D185
:1003700020780023000704D5702D02D009B1022394
:1003800011322046BDE8704000F0C8B8C22100001C
:100390002DE9F05F894604464FF0000ADFF824B1EA
:1003A000FB44C0F820A02046E168884700287DD0A3
:1003B000252806D0D4E901219047206A401C2062FC
:1003C000F1E700255F462046E16888472028064679
:1003D00007DB312E05D2B81910F8200C08B10543FF
:1003E000F1E7A80701D525F00405C4F81CA00027F3
:1003F000C4F818A02A2E09D0304601F008FF38B3FF
:1004000004EB8708303EC8F8186019E059F8041B5F
:10041000204604EB87029161E1688847012F064678
:1004200018D1E069002820DA25F020051DE0D8F871
:10043000180000EB800006EB40003038C8F81800C8
:100440002046E1688847064601F0E1FE0028EED12B
:10045000012F0AD02E2E08D12046E16888477F1C44
:100460000646022F45F02005C4DBA069002803DA08
:10047000404245F00105A061E80701D025F01005D4
:10048000A6B1A6F14100192802D8203645F400652E
:100490004A463146204625604D46FFF761FE60B171
:1004A000012807D0ED1D25F0070000E007E000F16E
:1004B000080978E705F1040975E730467AE7206A0C
:1004C000BDE8F09F982100004FF0000200B51346F0
:1004D00094469646203922BFA0E80C50A0E80C5064
:1004E000B1F12001BFF4F7AF090728BFA0E80C5015
:1004F00048BF0CC05DF804EB890028BF40F8042B0E
:1005000008BF704748BF20F8022B11F0804F18BF7A
:1005100000F8012B70477047704770472DE9F0478E
:100520000D4699469246044600F124080168880663
:1005300004D5E06921F01001216000E00120A8420B
:1005400001DD471B00E00027A1697A1902EB0900D1
:10055000081AA0612078C00602D42046FFF760FE8A
:10056000002608E0D4E901211AF806009047206A25
:10057000401C761C20624E45F4DB2078C0060AD56C
:100580002046FFF74DFE06E0D4E9012130209047D8
:10059000206A401C2062381EA7F10107F4DC07E046
:1005A000D4E9012118F805009047206A401C206218
:1005B000281EA5F10105F3DC2046FFF747FE207851
:1005C000000602D50220BDE8F0870120FBE700000D
:1005D00001694A1C02610878704700B58FB0CDE907
:1005E00001310021059105497944CDE903101146F7
:1005F0006846FFF7CDFE0FB000BD0000E5FFFFFF2E
:100600000A6802F8010B0A60704710B5436913B11C
:10061000AFF3008001E0FFF72AFE012010BD127841
:1006200000F124010A7000224A700122EDE71168EE
:100630004FF0FF32E9E70000074B70B50D467B44F1
:10064000FFF7CBFF0446284601F0E8FD10B14FF05C
:10065000FF3070BD204670BDDF1B0000754600F006
:100660002BF8AE4605006946534620F00700854644
:1006700018B020B5FFF7A0FDBDE820404FF0000600
:100680004FF000074FF000084FF0000B21F007017A
:10069000AC46ACE8C009ACE8C009ACE8C009ACE8BD
:1006A000C0098D46704710B50446AFF30080204660
:1006B000BDE81040FFF76CBD0048704750020020B5
:1006C00001491820ABBEFEE7260002007047FEE796
:1006D000704772B6FEE7000070B5044600F010F9EE
:1006E0000546601C02D004480078044400F008F974
:1006F000401BA042FAD370BD0C0100202DE9F84F39
:10070000DFF8B891002409F1040A0AF1040B23462A
:100710000F270BF1040EC9E00125A5402A40AA428B
:100720007DD1674ED1F804C0ACEB0608B44532D099
:1007300014DCBCF1030F3AD009DCBCF1000F2AD065
:10074000BCF1010F1CD0BCF1020F31D11DE0BCF196
:10075000110F17D0BCF1120F2AD119E0B8F5881F7C
:1007600019D006DCB8F5803F15D0B8F5801F1FD131
:1007700011E0B8F5001F0ED0B8F5041F18D10AE03B
:10078000CB6815E0CB681B1D12E0CB6808330FE087
:10079000CB680C330CE08B682BB1012B4FF00803B6
:1007A00003D0456104E0042302E0056100E000237A
:1007B000FF2A01D8064601E000F104064FEA84054D
:1007C00001D9A5F12005D6F8008007FA05FC28EA32
:1007D0000C0803FA05F548EA0508C6F800804D68DC
:1007E000ED0062D5374DAE6946F00106AE61AD69E8
:1007F00024F0030605F001050095334D06EB050CCA
:10080000DCF80850A607360F07FA06F825EA0805AF
:10081000DFF8B880404503D14FF0000817E044E00E
:10082000DFF8AC80404502D14FF001080FE0DFF85F
:10083000A480404502D14FF0020808E0DFF898801C
:10084000404502D14FF0030801E04FF0040808FAD8
:1008500006F848EA0508CCF808804D68D9F8006029
:10086000ED034D4601D5164300E096432E604D68DA
:10087000DAF80060AD03554601D5164300E0964313
:100880002E604D68DBF80060ED025D4601D5164331
:1008900000E096432E604D68DEF80060AD027546BC
:1008A00001D5164300E096432E60641C0D682A466D
:1008B000E5407FF431AFBDE8F88F0000000401404F
:1008C000000011100010024000000140000801402B
:1008D000000C0140001001400014014080680840F5
:1008E00000D001207047C26821EA02030A4043EAAF
:1008F0000241016170470AB1016170470904FBE7D9
:1009000001488068704700000C010020024881689F
:1009100002781144816070470C010020074810B52F
:10092000016841F010010160032000F075F80F200C
:1009300000F006F800F024F8002010BD002002406E
:1009400070B50D4D04464FF47A712878B1FBF0F084
:100950000A490968B1FBF0F000F06FFC48B9102CAF
:1009600007D200222146501E00F036F800206C60AD
:1009700070BD012070BD00000C0100201801002096
:100980000C4808B5816941F001018161816901F07C
:1009900001010091C16941F08051C161C06900F05D
:1009A000805000900448416821F0E06141F00071FE
:1009B000416008BD0010024000000140002809DB32
:1009C00000F01F02012191404009800000F1E02069
:1009D000C0F8001170470000F0B40E4B1B680C46C5
:1009E000C3F30223C3F10705042D00D90425191D03
:1009F000072901D2002300E0DB1E012606FA05F1DB
:100A0000491E214099409E40761E16403143F0BC5D
:100A100001F0EDBB0CED00E0064900F007020868AC
:100A20004FF6FF03184040EA0220034A10430860D3
:100A3000704700000CED00E00000FA052DE9F047DA
:100A40000F46050061D0434E306800F00700B84201
:100A500009D2306820F0070038433060306800F079
:100A60000700B84251D128683B4C810712D5400796
:100A700003D5606840F4E06060602878000703D523
:100A8000606840F4605060606068A96820F0F00021
:100A9000084360602878C00728D06868012810D013
:100AA0002168022810D0890700292EDA616821F018
:100AB000030101436160FFF723FF804641F288395B
:100AC0000DE021688903EFE78901EDE7FFF718FFE3
:100AD000A0EB0801494502D90320BDE8F087606812
:100AE000696800F00C00B0EB810FEFD1306800F0C6
:100AF0000700B8420BD9306820F007003843306057
:100B0000306800F00700B84201D00120E5E72878FE
:100B1000400705D56068E96820F4E060084360603C
:100B20002878000706D56068296920F4605040EAFB
:100B3000C100606000F038F86168084AC1F3031131
:100B4000515CC8400649086006480068FFF7F8FE97
:100B50000020C2E70020024000100240FC240008F0
:100B60001801002010010020044805490068496868
:100B7000044AC1F30221515CC840704718010020AB
:100B8000001002400C250008044805490068496827
:100B9000044AC1F3C221515CC840704718010020CB
:100BA000001002400C25000812A185B00FC98DE885
:100BB0000F0014A0144A006804905168134801F013
:100BC0000C03042B10D0082B0ED1C1F38343C903AF
:100BD0001DF803000AD5516804AAC1F34041515CD5
:100BE0000A4A5043B0FBF1F005B07047084948434A
:100BF000FAE7000002030405060708090A0B0C0DBA
:100C00000E0F1010010200000010024000127A00C6
:100C100000093D002DE9F84F040070D02078C04D48
:100C2000C00749D06868C0F38100012807D0686810
:100C3000C0F38100022809D16868C00306D528687E
:100C4000800339D560680028E7D035E06068B0F5EA
:100C5000803F0BD010B1B0F5A02F11D0286820F440
:100C600080302860286820F4802002E0286840F462
:100C700080302860606890B1FFF742FE06460AE0C7
:100C8000286840F480202860F0E700BFFFF738FEB6
:100C9000801B642873D828688003F7D50CE0FFF721
:100CA0002FFE064605E000BFFFF72AFE801B6428E2
:100CB000F0D828688003F7D420789A4E80074FF048
:100CC00001094FF0000839D5686810F00C0F07D003
:100CD0006868C0F38100022809D16868C00306D49F
:100CE0002868800714D52069012808D110E0206900
:100CF000B0B1C6F80090FFF703FE074605E00AE131
:100D0000FFF7FEFDC01B0228C4D828688007F7D56E
:100D10002868616920F0F80040EAC10028600DE011
:100D2000C6F80080FFF7ECFD074604E0FFF7E8FD9A
:100D3000C01B022823D828688007F7D42078000732
:100D40002CD57948A169D9B1C0F80090FFF7D8FD3A
:100D5000074604E0FFF7D4FDC01B02280FD8686ADD
:100D60008007F7D571484FF4FA510068B0FBF1F0F5
:100D7000009000BF0098411E0091FAD20EE080E082
:100D8000C0F80080FFF7BCFD074604E0FFF7B8FDA0
:100D9000C01B022875D8686A8007F7D420784007FE
:100DA00060D5E8690027C00008D4E86940F08050A9
:100DB000E861E869012700F0805000905C48016814
:100DC000C90513D40168834641F480710160FFF7BF
:100DD00097FD824606E000BFFFF792FDA0EB0A00F8
:100DE00064284ED8DBF80000C005F5D5E06801287E
:100DF0000AD008B1052813D0286A20F00100286223
:100E0000286A20F0040002E0286A40F0010028620D
:100E1000E06841F2883B98B1FFF772FD82460BE033
:100E2000286A40F004002862EEE700BFFFF768FD83
:100E3000A0EB0A0159455AD8286A8007F6D50CE07C
:100E4000FFF75EFD824605E0FFF75AFDA0EB0A01C1
:100E500059454CD8286A8007F6D41FB1E86920F0BC
:100E60008050E861E06988B36968C1F381010229B3
:100E700044D00228C6F8608004D0FFF741FD044644
:100E800038E034E0FFF73CFD074604E0FFF738FDAB
:100E9000C01B02282BD828688001F7D4206AB0F53F
:100EA000803F05D16868A16820F40030084368607D
:100EB000D4E908010843696821F4741108436860A3
:100EC000C6F86090FFF71CFD044606E025E000BF71
:100ED000FFF716FD001B022809D828688001F7D506
:100EE0001BE000BFFFF70CFD001B022802D9032006
:100EF000BDE8F88F28688001F4D40EE00128F7D00F
:100F00006868226A00F48031914204D1616A00F479
:100F10007010884201D00120EAE70020E8E70000D5
:100F200000100240000042428004424218010020AA
:100F30000070004070B5040009D0606A002540B11F
:100F400025616561A56294F8510040B10CE0012073
:100F500070BD6068B0F5827FF4D0E561F2E784F897
:100F60005050204600F040F8022084F851002068DC
:100F7000016821F040010160A088218900F482709D
:100F800001F404410843A18901F400610843217C74
:100F900001F002010843217D01F001010843218B8A
:100FA00001F400710843217F01F03801084394F8EF
:100FB000201001F080010843218D01F40051084305
:100FC00021680860A069042101EA10402168486096
:100FD0002068C16921F40061C1616565012084F860
:100FE0005100002070BD000030B585B00024009491
:100FF00001940294039400681449884223D1144850
:10100000816941F480518161816901F480510491C9
:10101000816941F00401816180690E4D00F0040096
:101020000490A020009002200190032003906946C4
:101030002846FFF763FB4020CDE9000469462846B7
:101040000294FFF75BFB05B030BD000000300140AB
:1010500000100240000801402DE9F84F044690F8C6
:10106000500000270A9E1D4692468B464FF001090C
:1010700001280ED0012084F85000FFF741FC804683
:1010800094F85100616801280CD0B1F5827F07D136
:1010900002E00220BDE8F88FA16809B9042801D058
:1010A0000227C2E0BBF1000F27D0BAF1000F24D015
:1010B0001DB394F85100042802D0052084F8510093
:1010C00000206065C4F838A0E587A587C4F830B073
:1010D000E586A5862064606420680168490603D41B
:1010E000016841F040010160E068B0F5006F6068A0
:1010F00005D0E8B3012D46D07FE0012795E008B187
:10110000012D39D1206B21680088C860206B801CBC
:101110002063E08E401EE0862EE02068816889070B
:101120000FD5E18E69B1B9F1010F0AD1216B0988A0
:10113000C160206B801C2063E08E401EE0864FF073
:10114000000920688168C9070CD0E18F51B1C068DF
:10115000A16B0880A06B801CA063E08F401EE0871D
:101160004FF00109FFF7CCFBA0EB0800B04200E014
:1011700009E001D3701C50D1E08E0028CDD1E08F62
:101180000028CAD13FE0206B216800780873206BEB
:10119000401C2063E08E401EE0862EE020688168BF
:1011A00089070FD5E18E69B1B9F1010F0AD1216B21
:1011B00009780173206B401C2063E08E401EE0869E
:1011C0004FF0000920688168C9070CD0E18F51B148
:1011D000C068A16B0870A06B401CA063E08F401E2C
:1011E000E0874FF00109FFF78BFBA0EB0800B0424E
:1011F00002D3701C01D010E07EB1E08E0028CDD16A
:10120000E08F0028CAD142463146204600F0D4FD86
:1012100028B101272020606507E0032705E0A068CA
:1012200018B92068C16880680090012084F85100D6
:10123000002084F8500038462CE710B5401EB0F16D
:10124000807F01D3012010BD4FF0E02460610F21A9
:10125000601700F0CCFF0020A06107202061002073
:1012600010BD70477047000070B590F83C20012A0F
:1012700026D0012480F83C40022280F83D200368FB
:101280005A689D6822F070060A6832435A600D4B16
:1012900002689A4208D0B2F1804F05D00A4B9A42B8
:1012A00002D00A4B9A4204D1496825F080031943C1
:1012B000916080F83D40002180F83C10084670BDE8
:1012C000022070BD002C01400004004000080040D6
:1012D000704770B50446006801694FF00005C943C6
:1012E000890715D4C168C943890711D4E91E016172
:1012F00001202077206880698007204602D0FFF710
:10130000E7FF04E000F0BEF8204600F06BF9257717
:1013100020680169C943490717D4C168C94349070F
:1013200013D46FF0040101610220207720688069E6
:1013300010F4407F204602D0FFF7CAFF04E000F01F
:10134000A1F8204600F04EF9257720680169C943CD
:10135000090716D4C168C943090712D46FF0080100
:101360000161042020772068C0698007204602D0F0
:10137000FFF7AEFF04E000F085F8204600F032F9F8
:10138000257720680169C943C90617D4C168C943D4
:10139000C90613D46FF0100101610820207720687E
:1013A000C06910F4407F204602D0FFF791FF04E0AF
:1013B00000F068F8204600F015F9257720680169EB
:1013C000C943C90708D1C168C943C90704D1891EE7
:1013D0000161204600F056F920680169C9430906F9
:1013E00009D4C168C943090605D46FF080010161C1
:1013F0002046FFF736FF20680169C943490609D432
:10140000C168C943490605D46FF040010161204617
:1014100000F039F920680169C94389060BD4C16815
:10142000C943890607D46FF0200101612046BDE859
:101430007040FFF717BF70BD00B585B00021009167
:1014400001910291039100680B49884211D10B4828
:10145000816941F0080181618069694600F00800F6
:101460000490C02000900220019003900448FFF7F0
:1014700045F905B000BD0000000800400010024022
:10148000000C0140704770B5044690F83C000D46D2
:1014900001280AD0012084F83C0042B1042A18D067
:1014A000082A2AD00C2A4DD139E0022070BD2068CC
:1014B00000F06CFD2068816941F0080181612068BD
:1014C000816921F004018161206881692A691143E1
:1014D00011E0206800F082FD2068816941F400611C
:1014E00081612068816921F480618161206881695E
:1014F0002A6941EA0221816124E0206800F09AFD16
:101500002068C16941F00801C1612068C16921F00A
:101510000401C1612068C1692A69114311E0206892
:1015200000F0B4FD2068C16941F40061C161206828
:10153000C16921F48061C1612068C1692A6941EAF9
:101540000221C161002084F83C0070BD10B5040088
:1015500003D094F83D0010B107E0012010BD002039
:1015600084F83C00204600F01FF8022084F83D007B
:10157000211D206800F0C6FC012084F8460084F894
:101580003E0084F83F0084F8400084F8410084F86D
:10159000420084F8430084F8440084F8450084F84D
:1015A0003D00002010BD000008B500680B498842CE
:1015B00012D10B48C16941F00401C161C069002228
:1015C00000F00400009011461E20FFF705FABDE868
:1015D00008401E20FFF7F2B908BD000000080040D7
:1015E000001002407047000010B50446022249B1C5
:1015F00004290ED0082913D094F84100012816D0F0
:10160000012010BD94F83E000128F9D184F83E2055
:101610000FE094F83F000128F2D184F83F2008E061
:1016200094F840000128EBD184F8402001E084F8D0
:1016300041200122206800F09BFC0F49206888426D
:1016400003D1426C42F4004242642068884208D0D0
:10165000B0F1804F05D00949884202D0084988423C
:1016600004D1816801F00701062903D0016841F027
:1016700001010160002010BD002C01400004004069
:10168000000800407047704770B5040004D094F81B
:101690003D00002510B106E0012070BD84F83C50EB
:1016A000204600F023F8242084F83D002068C1681B
:1016B00021F40051C160204600F00AFD2068016954
:1016C00021F4904101612068416921F02A014161C2
:1016D0002068C16841F40051C1602564202084F86D
:1016E0003D0084F83E00002070BD000030B585B09C
:1016F00000240094019402940394006814498842E1
:1017000024D11448816941F480418161816901F4E7
:1017100080410491816941F00401816180690E4D2D
:1017200000F0040004904FF400700090022001903B
:101730000320039069462846FEF7E0FF2815CDE90F
:101740000004694628460294FEF7D8FF05B030BD74
:101750000038014000100240000801402DE9F84324
:10176000044690F83D001F4616460D4620284CD1F1
:10177000C5B1BEB194F83C00012846D0012084F8E0
:101780003C004FF00008C4F84080212084F83D0060
:10179000FFF7B6F8A6848146E684A068B0F5805FBE
:1017A00003D004E00120BDE8F883206928B12E466B
:1017B0005FF0000584F83C800EE00026FAE7802107
:1017C000204600F0E1FCA0B9AEB116F8010B21688B
:1017D0004860E08C401EE084E08C4B464FF00002F5
:1017E00000970028EBD14FF04001204600F0CCFCE0
:1017F00030B10320D7E735F8020BC0F30800E6E765
:10180000202084F83D000020CDE70220CBE7FEE752
:1018100010B5142000F0E0F8800705D10321BDE8E1
:101820001040142000F023B910BD7CB504460025FB
:1018300029460D2000F0B1F993202070202060701F
:1018400001A823460090022219460C2000F01BF943
:10185000010009D1225C401C5540C0B20428F9D3D4
:10186000205CA84200D0022108467CBD30B585B07E
:101870008DF804008DF80510002001A9145C0D18E6
:10188000401CC0B2AC700628F8D300200C181A5CBB
:10189000401CC0B222720428F8D304A800900B4662
:1018A0000C220E2000F0EFF8040004D1082000F014
:1018B00093F8000700D4022405B0204630BD2DE97E
:1018C000F0410E46074615460421052000F026F893
:1018D00080210A2000F0CBF8002405E0395D0920C2
:1018E00000F05BF9641CE4B2B442F7D30321012099
:1018F00000F053F9FF24052000F06EF8641E14F088
:10190000FF0401D04007F6D5222000F065F82870CA
:10191000212000F061F86870BDE8F08170B50C46D8
:10192000054600F059F820EA04012846BDE8704059
:1019300000F033B90EB550208DF8040000208DF86A
:1019400005000DF10602022101A8FFF7B8FF02A869
:1019500001AB0090042219460C2000F094F80EBD53
:1019600010B500F057F88D212A2000F016F93E211D
:101970002B2000F012F91E212D2000F00EF900217D
:101980002C2000F00AF97021262000F006F94021F1
:10199000152000F002F93D21112000F0FEF8BDE80D
:1019A0001040FFF735BF1CB50C4630212170607028
:1019B000A21C02212046FFF782FF01A823460090C7
:1019C000042219460C2000F05EF818B9BDF8041086
:1019D000902900D002201CBD7E2101EA400040F089
:1019E000800000F0B9B97CB50C46054607210D20F2
:1019F00000F0D3F8257001A8234600900122194673
:101A00000C2000F040F818B9BDF80410102900D0DF
:101A100002207CBD0F21012000F0BFB810B586B0B8
:101A200093218DF8041070218DF80510002101AA72
:101A3000435C5418491CC9B2A3700529F8D3072187
:101A400001A8D21DFFF73BFF04A801AB00900922BB
:101A500019460C2000F017F818B9BDF81000182826
:101A600002D0002006B010BD9DF80400FAE770B562
:101A70000C460546FFF7B0FF40EA04012846BDE8E2
:101A8000704000F08AB82DE9FF5F00270226DDF8DC
:101A900038A015468B468146B8460C2805D0B9F1CA
:101AA0000E0F05D11227102001E077273020804645
:101AB00047F08001022000F070F880210420FFF739
:101AC0002DFF80210A20FFF7D2FF0021012000F026
:101AD00064F8002406E01BF80410092000F05DF80B
:101AE000641CA4B2AC42F6D34946012000F055F87C
:101AF000B9F10C0F03D180210D20FFF7B8FF4FF48F
:101B0000FA650420FFF768FF6D1E2D0404462D0CB6
:101B100004D0E00702D114EA080FF2D080210D2092
:101B2000FFF7FCFE35B10620FFF756FF10F01B0F44
:101B300004D0022604B03046BDE8F09F00263C40A9
:101B4000E00700D00126B9F10C0FF3D10A20FFF70E
:101B500043FF04460C20FFF73FFF10F007004FEA59
:101B6000C40104D008390844AAF8000001E0AAF82A
:101B7000001024B1102C04D91024002503E0012406
:101B8000FBE7002506E00920FFF726FF03994855EB
:101B90006D1CADB2A542F6D3CCE77E2202EA40002E
:101BA00000F0F2B830B585B000241C4800940194D0
:101BB00002940394816941F020018161816901F0FF
:101BC00020010491816941F004018161816901F082
:101BD00004010491816941F0080181618069104D1F
:101BE00000F008000490002210212846FEF783FE32
:101BF000102000900120CDE90104022003906946E5
:101C00002846FEF77BFD0820CDE90004694605481B
:101C10000294FEF773FD05B030BD000000100240D5
:101C200000080140000C0140104810B50E49016049
:101C30004FF48271416000218160C1604FF40072F5
:101C40000161C0E905120822C0E9072141628162F1
:101C50000A21C162FFF76EF9002803D0BDE81040E9
:101C6000FEF737BD10BD0000003001406C010020C0
:101C700010B58AB0002407941C2168460894FEF72A
:101C800023FC1C481A49016040F2CF21C0E901142D
:101C900040F2E731C0E903148461FFF757FC08B153
:101CA000FEF717FD079407A912480894FFF7DCFA1E
:101CB00008B1FEF70EFD6020009040F2F310CDE970
:101CC0000104002269460B480494FFF7DCFB08B1CD
:101CD000FEF7FFFC042269460648FFF7D4FB08B173
:101CE000FEF7F7FC0348FFF7A7FB0AB010BD0000A2
:101CF00000080040C40100200C4810B50A490160EA
:101D00004FF4E1314160002181600C22C160C0E9E3
:101D100004128161C161FFF7B7FC002803D0BDE860
:101D20001040FEF7D6BC10BD003801400C02002068
:101D3000FEE7FEE7704700000EB501238DF80400B2
:101D40000A20009002AA01A90248FFF785F99DF830
:101D500008000EBD6C01002070B50A4D044600223B
:101D600010212846FEF7C7FD2046FFF7E5FF0020BB
:101D7000FFF7E2FF0446012210212846FEF7BBFDD3
:101D8000204670BD0008014070B50A4C0E4605465D
:101D9000002210212046FEF7AEFD2846FFF7CCFFBB
:101DA0003046FFF7C9FF2046BDE8704001221021F0
:101DB000FEF7A1BD0008014038B50B46009204466D
:101DC0000022802100F008F8002804D0606D40F067
:101DD00020006065032038BD2DE9F8431E4691467A
:101DE00088460446089DFEF78BFD401B351AFEF71A
:101DF00087FD074625480068C0F3CB30684338E0CC
:101E0000701C37D0FEF77CFDC01BA84203D215B171
:101E1000009860B32CE02068416821F0E001416047
:101E20006068B0F5827F0BD1A068B0F5004F02D09A
:101E3000B0F5806F04D12068016821F04001016095
:101E4000A06AB0F5005F09D12068016821F4005153
:101E500001602068016841F400510160012084F8AC
:101E60005100002084F850000320BDE8F8830025CD
:101E7000401E00902068816838EA010004D00021EB
:101E80004945BDD10020F0E70121F9E71801002004
:101E90007047FEF73BBD30B58FB028216846FEF78E
:101EA00013FB14210AA8FEF70FFB01210804CDE95A
:101EB00000100024029402250491CDE907504FF44C
:101EC000E01009906846FEF7A5FE08B172B6FEE77D
:101ED0000F20CDE90A054FF48060CDE90C400221C6
:101EE0000AA80E94FEF7AAFD002801D072B6FEE7FC
:101EF0000FB030BD704700000148FFF7EAB900009D
:101F0000C4010020F0B50268164B174C174D4FF076
:101F10008047984205D0B84203D0A04201D0A842E1
:101F200003D122F070064A683243984205D0B84285
:101F300003D0A04201D0A84203D122F44074CA6861
:101F400022434C6922F08002224302608A68C26206
:101F50000A688262984201D10969016301214161E5
:101F6000F0BD0000002C01400004004000080040CB
:101F700010B501F01F030121046A99408C430462EB
:101F8000016A9A401143016210BD000030B5026A37
:101F900022F001020262026A4368846924F0730538
:101FA0000C682C4322F002058A682A430A4DA84295
:101FB0000BD122F00805CA6823F440732A434D6907
:101FC00022F004021D438B692B43436084614968FE
:101FD0004163026230BD0000002C014030B5026A4E
:101FE00022F010020262026A436884690D6824F4D8
:101FF000E64444EA05248D6822F0200242EA0512F4
:102000000B4DA8420ED1CD6822F0800242EA0512A3
:102010004D6923F4406343EA85038D6922F0400251
:1020200043EA85034360846149688163026230BD8D
:10203000002C014030B5026A22F480720262036A09
:102040004268C46923F4007324F073050C682C43C0
:102050008D6843EA05230C4DA8420ED1CD6823F4C8
:10206000006343EA05234D6922F4405242EA051217
:102070008D6923F4806342EA05124260C4614968B5
:10208000C163036230BD0000002C014030B5026A1C
:1020900022F480520262046A4268C3690D6823F424
:1020A000E64343EA05238D6824F4005444EA0534EA
:1020B000064DA84204D14D6922F4804242EA8512BD
:1020C0004260C36149680164046230BD002C014074
:1020D00070B5044600680169E26821F4405111437B
:1020E00001612169A0680843616908432168CA68E1
:1020F00041F20C639A430243CA6020684169A269B5
:1021000021F44071114341611E492068884202D187
:10211000FEF73AFD01E0FEF727FD00EBC00101EB01
:102120000012606864218000B2FBF0F3B3FBF1F3AE
:102130006FF018067343B2FBF0F5B2FBF0F605EB57
:102140008305322303EB0515B5FBF1F5B6FBF1F67C
:1021500005F0F00505EB0615B2FBF0F6B2FBF0F06A
:10216000B0FBF1F06FF01802504306EB800003EB78
:102170000010B0FBF1F0216800F00F0028448860E7
:1021800070BD0000003801402DE9F0419846174627
:102190000E460446069D1DE0681C1BD02DB1FEF7BF
:1021A000AFFBA0EB0800A84214D92068C16821F455
:1021B000D071C1602068416921F001014161202096
:1021C00084F83D0084F83E00002084F83C000320A1
:1021D000BDE8F0812068006836EA000004D00020E5
:1021E000B842D9D00020F3E70120F9E7FEE709075C
:1021F000090E002804DB00F1E02080F8001470478D
:1022000000F00F0000F1E02080F8141D7047303816
:102210000A2801D201207047002070470020704733
:1022200013B54FF6FF73012269460248FFF796FA8D
:1022300000981CBD0C02002010B508210448FEF7D0
:102240004DFB01460020012900D1012010BD0000F6
:10225000000C014086B0FEF761FBFFF71CFEFFF7A4
:10226000A1FCFFF7E1FCFFF747FDFFF701FDFFF7DA
:1022700077FB00217348FFF7B7F904217148FFF796
:10228000B3F9704E4FF000083168C1F834803168FE
:10229000C1F83880DFF8B0B1DFF8B0910227ABF1B8
:1022A00027044FF0C80A00BF4FF400516848FEF7FA
:1022B0001AFB664867A11030FDF79CFF6349A070C8
:1022C000103167A0FDF78AFF1420FEF705FA67704A
:1022D0005E492620FFF787FB607090B95B4899F84C
:1022E000003099F801205FA11030FDF783FF5749B6
:1022F000A07010315AA0FDF771FF40215F48FEF732
:10230000F2FA51482438FFF790FA607090B94E48BD
:102310002438C2788178CDE90012437802784B489E
:1023200057A11030FDF766FF4849A07010314CA04E
:10233000FDF754FF44482438FFF770FB207058B174
:102340000246424852A11030FDF754FF3F49A070A9
:10235000103143A0FDF742FF3B4B5A46243B0B2173
:102360006020FFF783FA6070002865D137490B20A1
:10237000FFF719FB6070002859D199F804000DF19E
:10238000080C99F8073099F8062099F805108CE8A0
:102390000F0099F8031099F80200CDE900012B48CD
:1023A0004D4699F8013099F800203CA11030FDF716
:1023B00021FF2649A070103129A0FDF70FFF287BCF
:1023C0000DF1080CEB7BAA7B697B8CE80F00E97AA6
:1023D000A87ACDE900011D486B7A2A7A2FA1103026
:1023E000FDF708FF1949A07010311DA0FDF7F6FE9A
:1023F00035A0FDF7F3FEFFF71FFF30685546C0F824
:1024000034A03068C0F838A0306845633068856310
:10241000FFF712FFC0B20128F6D14FF4FA50FEF7D1
:102420005BF93168C1F834803168C1F838804FF405
:1024300080411248FEF757FAFFF77CFAC820FEF7F2
:102440004BF931E7C4010020270000201C010020C7
:10245000001001401B5B481B5B324A0D0A00000064
:102460002573000053414B3A203078253032582CE8
:10247000203078253032580A0D000000000C014051
:10248000434E3A2025782578257825780D0A0000D6
:1024900043533A2025640D0A0000000025303258CD
:1024A000202530325820253032582025303258200F
:1024B00025303258202530325820253032582025FA
:1024C0003032580D0A0000002D2D2D2D2D2D2D2DD3
:1024D0002D2D2D2D2D2D2D2D2D2D2D2D2D2D2D2D2C
:1024E0002D2D2D2D2D2D2D2D2D2D2D2D2D2D2D2D1C
:1024F0002D2D2D2D2D2D2D2D2D0D0A000000000030
:1025000000000000010203040607080900000000A3
:102510000102030430313233343536373839414221
:102520004344454640305800303132333435363735
:1025300038396162636465664030780004000008E1
:102540000000000000000002000100001000000078
:1025500070250008000000201C0100002801000870
:102560008C2600081C01002094070000440100088C
:1025700000000000000000FFFFFFFFFFFF00000061
:1025800000000000000000FFFFFFFFFFFF00000051
:1025900000000000000000FFFFFFFFFFFF00000041
:1025A00000000000000000FFFFFFFFFFFF00000031
:1025B000000000000000000000000000000000001B
:1025C000000000000000000000000000000000000B
:1025D00000000000000000000000000000000000FB
:1025E00000000000000000000000000000000000EB
:1025F00000000000000000000000000000000000DB
:1026000000000000000000000000000000000000CA
:1026100000000000000000000000000000000000BA
:1026200000000000000000000000000000000000AA
:10263000000000000000000000000000000000009A
:10264000000000000000000000000000000000008A
:10265000000000000000000000000000000000007A
:10266000000000000000000000000000000000006A
:102670000000000000000000000000000100000059
:0C26800010000000000000000024F40026
:04000005080000ED02
:00000001FF
