:020000040800F2
:10000000680800209D0100083B180008C313000881
:1000100039180008CF0600081D1B0008000000006A
:100020000000000000000000000000009919000816
:10003000D1060008000000003D1800089B190008C8
:10004000B7010008B7010008B7010008B7010008B0
:10005000B7010008B7010008B7010008B7010008A0
:10006000B7010008B7010008B7010008B701000890
:10007000B7010008B7010008B7010008B701000880
:10008000B7010008B7010008B7010008B701000870
:10009000B7010008B7010008B7010008B701000860
:1000A000B7010008B7010008B7010008B701000850
:1000B000B7010008B7010008B7010008B701000840
:1000C000B7010008B7010008B7010008B701000830
:1000D000B7010008B7010008B7010008B701000820
:1000E000B7010008B7010008B701000800F002F8E6
:1000F00000F045F80AA090E8000C82448344AAF17D
:100100000107DA4501D100F03AF8AFF2090EBAE87A
:100110000F0013F0010F18BFFB1A43F0010318473B
:10012000A41C0000C41C0000103A24BF78C878C189
:10013000FAD8520724BF30C830C144BF04680C60ED
:10014000704700000023002400250026103A28BF35
:1001500078C1FBD8520728BF30C148BF0B60704739
:10016000642900F0AD80782900F0E680732900F062
:100170005E82002070471FB51FBD10B510BD00F096
:100180006DFA1146FFF7F7FF01F0EEFC00F08BFA75
:1001900003B4FFF7F2FF03BC00F092FA094880476E
:1001A00009480047FEE7FEE7FEE7FEE7FEE7FEE759
:1001B000FEE7FEE7FEE7FEE704480549054A064B71
:1001C00070470000FD190008ED00000868020020DB
:1001D0006808002068040020680400200FB4044967
:1001E00010B503AA029800F027FA10BC5DF814FBC2
:1001F000080100200FB41CB5084B06AA7B446946D1
:100200000090059800F0E9F904460020694600F0E6
:10021000F7F920461CBC5DF814FB00000104000047
:1002200070B5044685690068C10601D5302600E036
:100230002026C00707D070BDD4E901213046904781
:10024000206A401C20626D1EF6D570BD70B5044654
:1002500085690078C00707D170BDD4E9012120204D
:100260009047206A401C20626D1EF6D570BD70B5A7
:100270000C460546012A05D02878800600D5EA6993
:10028000002302E0012305E05B1C934202D2E05C04
:100290000028F9D1A869E618C01AA861286A18448C
:1002A00028622846FFF7BCFF04E0D5E9012114F8D5
:1002B000010B9047B442F8D32846FFF7C7FF70BD43
:1002C0002DE9F0410646002410687529314616A52F
:1002D00010D0AFF30080002802DA404213A507E0F7
:1002E00031688A0701D512A502E0490704D511A596
:1002F000012401E0AFF3008000210A2206F1240767
:1003000009E0B0FBF2FCB0FBF2F302FB1C00303062
:1003100078541846491C0028F3D123462A46304613
:10032000BDE8F04100F0FAB8000000002D00000028
:100330002B0000002000000070B504460D46214649
:100340001068AFF300802188090502D50F4A7A446E
:1003500002E00E4A7A440E32002104F1240305E043
:1003600000F00F060009965D5E54491C0028F7D185
:1003700020780023000704D5702D02D009B1022394
:1003800011322046BDE8704000F0C8B8361A0000AF
:100390002DE9F05F894604464FF0000ADFF824B1EA
:1003A000FB44C0F820A02046E168884700287DD0A3
:1003B000252806D0D4E901219047206A401C2062FC
:1003C000F1E700255F462046E16888472028064679
:1003D00007DB312E05D2B81910F8200C08B10543FF
:1003E000F1E7A80701D525F00405C4F81CA00027F3
:1003F000C4F818A02A2E09D0304601F0A0FB38B36B
:1004000004EB8708303EC8F8186019E059F8041B5F
:10041000204604EB87029161E1688847012F064678
:1004200018D1E069002820DA25F020051DE0D8F871
:10043000180000EB800006EB40003038C8F81800C8
:100440002046E1688847064601F079FB0028EED196
:10045000012F0AD02E2E08D12046E16888477F1C44
:100460000646022F45F02005C4DBA069002803DA08
:10047000404245F00105A061E80701D025F01005D4
:10048000A6B1A6F14100192802D8203645F400652E
:100490004A463146204625604D46FFF761FE60B171
:1004A000012807D0ED1D25F0070000E007E000F16E
:1004B000080978E705F1040975E730467AE7206A0C
:1004C000BDE8F09F0C1A00004FF0000200B5134683
:1004D00094469646203922BFA0E80C50A0E80C5064
:1004E000B1F12001BFF4F7AF090728BFA0E80C5015
:1004F00048BF0CC05DF804EB890028BF40F8042B0E
:1005000008BF704748BF20F8022B11F0804F18BF7A
:1005100000F8012B70477047704770472DE9F0478E
:100520000D4699469246044600F124080168880663
:1005300004D5E06921F01001216000E00120A8420B
:1005400001DD471B00E00027A1697A1902EB0900D1
:10055000081AA0612078C00602D42046FFF760FE8A
:10056000002608E0D4E901211AF806009047206A25
:10057000401C761C20624E45F4DB2078C0060AD56C
:100580002046FFF74DFE06E0D4E9012130209047D8
:10059000206A401C2062381EA7F10107F4DC07E046
:1005A000D4E9012118F805009047206A401C206218
:1005B000281EA5F10105F3DC2046FFF747FE207851
:1005C000000602D50220BDE8F0870120FBE700000D
:1005D00001694A1C02610878704700B58FB0CDE907
:1005E00001310021059105497944CDE903101146F7
:1005F0006846FFF7CDFE0FB000BD0000E5FFFFFF2E
:100600000A6802F8010B0A60704710B5436913B11C
:10061000AFF3008001E0FFF72AFE012010BD127841
:1006200000F124010A7000224A700122EDE71168EE
:100630004FF0FF32E9E70000074B70B50D467B44F1
:10064000FFF7CBFF0446284601F080FA10B14FF0C7
:10065000FF3070BD204670BD0F150000754600F0DC
:100660002BF8AE4605006946534620F00700854644
:1006700018B020B5FFF7A0FDBDE820404FF0000600
:100680004FF000074FF000084FF0000B21F007017A
:10069000AC46ACE8C009ACE8C009ACE8C009ACE8BD
:1006A000C0098D46704710B50446AFF30080204660
:1006B000BDE81040FFF76CBD0048704708020020FD
:1006C00001491820ABBEFEE7260002007047FEE796
:1006D000704772B6FEE7000070B5044600F00CF9F2
:1006E0000546601C02D004480078044400F004F978
:1006F000401BA042FAD370BD0C0100202DE9F84F39
:10070000DFF8B891002409F1040A0AF1040B23462A
:100710000F270BF1040EC9E00125A5402A40AA428B
:100720007DD1674ED1F804C0ACEB0608B44532D099
:1007300014DCBCF1030F3AD009DCBCF1000F2AD065
:10074000BCF1010F1CD0BCF1020F31D11DE0BCF196
:10075000110F17D0BCF1120F2AD119E0B8F5881F7C
:1007600019D006DCB8F5803F15D0B8F5801F1FD131
:1007700011E0B8F5001F0ED0B8F5041F18D10AE03B
:10078000CB6815E0CB681B1D12E0CB6808330FE087
:10079000CB680C330CE08B682BB1012B4FF00803B6
:1007A00003D0456104E0042302E0056100E000237A
:1007B000FF2A01D8064601E000F104064FEA84054D
:1007C00001D9A5F12005D6F8008007FA05FC28EA32
:1007D0000C0803FA05F548EA0508C6F800804D68DC
:1007E000ED0062D5374DAE6946F00106AE61AD69E8
:1007F00024F0030605F001050095334D06EB050CCA
:10080000DCF80850A607360F07FA06F825EA0805AF
:10081000DFF8B880404503D14FF0000817E044E00E
:10082000DFF8AC80404502D14FF001080FE0DFF85F
:10083000A480404502D14FF0020808E0DFF898801C
:10084000404502D14FF0030801E04FF0040808FAD8
:1008500006F848EA0508CCF808804D68D9F8006029
:10086000ED034D4601D5164300E096432E604D68DA
:10087000DAF80060AD03554601D5164300E0964313
:100880002E604D68DBF80060ED025D4601D5164331
:1008900000E096432E604D68DEF80060AD027546BC
:1008A00001D5164300E096432E60641C0D682A466D
:1008B000E5407FF431AFBDE8F88F0000000401404F
:1008C000000011100010024000000140000801402B
:1008D000000C01400010014000140140C26821EAF0
:1008E00002030A4043EA0241016170470AB1016113
:1008F00070470904FBE7000001488068704700006A
:100900000C01002002488168027811448160704720
:100910000C010020074810B5016841F0100101608A
:10092000032000F067F80F2000F006F800F024F82C
:10093000002010BD0020024070B50D4D04464FF45C
:100940007A712878B1FBF0F00A490968B1FBF0F040
:1009500000F061FC48B9102C07D200222146501E3D
:1009600000F028F800206C6070BD012070BD000010
:100970000C010020180100200C4808B5816941F0E5
:1009800001018161816901F001010091C16941F0BA
:100990008051C161C06900F08050009004484168F6
:1009A00021F0E06141F00071416008BD001002409B
:1009B00000000140F0B40E4B1B680C46C3F3022349
:1009C000C3F10705042D00D90425191D072901D2FB
:1009D000002300E0DB1E012606FA05F1491E214036
:1009E00099409E40761E16403143F0BC01F097B806
:1009F0000CED00E0064900F0070208684FF6FF031F
:100A0000184040EA0220034A104308607047000083
:100A10000CED00E00000FA052DE9F0470F46050057
:100A200061D0434E306800F00700B84209D2306808
:100A300020F0070038433060306800F00700B8420B
:100A400051D128683B4C810712D5400703D5606817
:100A500040F4E06060602878000703D5606840F4E7
:100A6000605060606068A96820F0F0000843606032
:100A70002878C00728D06868012810D0216802288B
:100A800010D0890700292EDA616821F003010143A3
:100A90006160FFF731FF804641F288390DE021683F
:100AA0008903EFE78901EDE7FFF726FFA0EB0801D7
:100AB000494502D90320BDE8F0876068696800F005
:100AC0000C00B0EB810FEFD1306800F00700B842A6
:100AD0000BD9306820F0070038433060306800F0F0
:100AE0000700B84201D00120E5E72878400705D586
:100AF0006068E96820F4E0600843606028780007D7
:100B000006D56068296920F4605040EAC100606041
:100B100000F038F86168084AC1F30311515CC8401D
:100B20000649086006480068FFF706FF0020C2E794
:100B30000020024000100240701D00081801002033
:100B4000100100200448054900684968044AC1F3BF
:100B50000221515CC840704718010020001002407B
:100B6000801D00080448054900684968044AC1F32B
:100B7000C221515CC840704718010020001002409B
:100B8000801D000812A185B00FC98DE80F0014A0C8
:100B9000144A006804905168134801F00C03042BB8
:100BA00010D0082B0ED1C1F38343C9031DF80300F5
:100BB0000AD5516804AAC1F34041515C0A4A504326
:100BC000B0FBF1F005B0704708494843FAE7000070
:100BD00002030405060708090A0B0C0D0E0F10107E
:100BE000010200000010024000127A0000093D00DE
:100BF0002DE9F84F040070D02078C04DC00749D0CF
:100C00006868C0F38100012807D06868C0F38100DC
:100C1000022809D16868C00306D52868800339D541
:100C200060680028E7D035E06068B0F5803F0BD001
:100C300010B1B0F5A02F11D0286820F480302860C2
:100C4000286820F4802002E0286840F48030286082
:100C5000606890B1FFF750FE06460AE0286840F44D
:100C600080202860F0E700BFFFF746FE801B642865
:100C700073D828688003F7D50CE0FFF73DFE0646E1
:100C800005E000BFFFF738FE801B6428F0D8286815
:100C90008003F7D420789A4E80074FF001094FF077
:100CA000000839D5686810F00C0F07D06868C0F3E9
:100CB0008100022809D16868C00306D4286880072B
:100CC00014D52069012808D110E02069B0B1C6F818
:100CD0000090FFF711FE074605E00AE1FFF70CFE62
:100CE000C01B0228C4D828688007F7D52868616926
:100CF00020F0F80040EAC10028600DE0C6F800804E
:100D0000FFF7FAFD074604E0FFF7F6FDC01B0228D7
:100D100023D828688007F7D4207800072CD5794895
:100D2000A169D9B1C0F80090FFF7E6FD074604E0DD
:100D3000FFF7E2FDC01B02280FD8686A8007F7D5CD
:100D400071484FF4FA510068B0FBF1F0009000BF19
:100D50000098411E0091FAD20EE080E0C0F80080B9
:100D6000FFF7CAFD074604E0FFF7C6FDC01B0228D7
:100D700075D8686A8007F7D42078400760D5E8699D
:100D80000027C00008D4E86940F08050E861E869B5
:100D9000012700F0805000905C480168C90513D419
:100DA0000168834641F480710160FFF7A5FD82462A
:100DB00006E000BFFFF7A0FDA0EB0A0064284ED8B4
:100DC000DBF80000C005F5D5E06801280AD008B1BD
:100DD000052813D0286A20F001002862286A20F034
:100DE000040002E0286A40F001002862E06841F255
:100DF000883B98B1FFF780FD82460BE0286A40F0FF
:100E000004002862EEE700BFFFF776FDA0EB0A01C1
:100E100059455AD8286A8007F6D50CE0FFF76CFDD3
:100E2000824605E0FFF768FDA0EB0A0159454CD862
:100E3000286A8007F6D41FB1E86920F08050E86185
:100E4000E06988B36968C1F38101022944D00228AE
:100E5000C6F8608004D0FFF74FFD044638E034E068
:100E6000FFF74AFD074604E0FFF746FDC01B0228D6
:100E70002BD828688001F7D4206AB0F5803F05D1CF
:100E80006868A16820F4003008436860D4E908016C
:100E90000843696821F4741108436860C6F86090DB
:100EA000FFF72AFD044606E025E000BFFFF724FD1A
:100EB000001B022809D828688001F7D51BE000BF75
:100EC000FFF71AFD001B022802D90320BDE8F88FA6
:100ED00028688001F4D40EE00128F7D06868226AFF
:100EE00000F48031914204D1616A00F470108842AC
:100EF00001D00120EAE70020E8E7000000100240EE
:100F0000000042428004424218010020007000406C
:100F100070B5040009D0606A002540B125616561A3
:100F2000A56294F8510040B10CE0012070BD6068EA
:100F3000B0F5827FF4D0E561F2E784F850502046A6
:100F400000F040F8022084F851002068016821F088
:100F500040010160A088218900F4827001F40441FD
:100F60000843A18901F400610843217C01F00201DA
:100F70000843217D01F001010843218B01F4007138
:100F80000843217F01F03801084394F8201001F054
:100F900080010843218D01F4005108432168086055
:100FA000A069042101EA1040216848602068C169F5
:100FB00021F40061C1616565012084F851000020C1
:100FC00070BD000030B585B00024009401940294F7
:100FD000039400681449884223D11448816941F47C
:100FE00080518161816901F480510491816941F0EE
:100FF0000401816180690E4D00F004000490A0207E
:101000000090022001900320039069462846FFF7D4
:1010100075FB4020CDE90004694628460294FFF79D
:101020006DFB05B030BD00000030014000100240F3
:10103000000801402DE9F84F044690F850000027C1
:101040000A9E1D4692468B464FF0010901280ED09C
:10105000012084F85000FFF74FFC804694F85100BF
:10106000616801280CD0B1F5827F07D102E002202F
:10107000BDE8F88FA16809B9042801D00227C2E0B1
:10108000BBF1000F27D0BAF1000F24D01DB394F8A4
:101090005100042802D0052084F85100002060652A
:1010A000C4F838A0E587A587C4F830B0E586A586E2
:1010B0002064606420680168490603D4016841F037
:1010C00040010160E068B0F5006F606805D0E8B3EA
:1010D000012D46D07FE0012795E008B1012D39D1DF
:1010E000206B21680088C860206B801C2063E08E24
:1010F000401EE0862EE02068816889070FD5E18ECA
:1011000069B1B9F1010F0AD1216B0988C160206B67
:10111000801C2063E08E401EE0864FF000092068AE
:101120008168C9070CD0E18F51B1C068A16B0880FC
:10113000A06B801CA063E08F401EE0874FF0010988
:10114000FFF7DAFBA0EB0800B04200E009E001D3B2
:10115000701C50D1E08E0028CDD1E08F0028CAD17C
:101160003FE0206B216800780873206B401C2063EF
:10117000E08E401EE0862EE02068816889070FD54A
:10118000E18E69B1B9F1010F0AD1216B09780173C0
:10119000206B401C2063E08E401EE0864FF000096B
:1011A00020688168C9070CD0E18F51B1C068A16B7C
:1011B0000870A06B401CA063E08F401EE0874FF0DA
:1011C0000109FFF799FBA0EB0800B04202D3701CA5
:1011D00001D010E07EB1E08E0028CDD1E08F002854
:1011E000CAD142463146204600F06AFB28B10127A9
:1011F0002020606507E0032705E0A06818B9206893
:10120000C16880680090012084F85100002084F8B3
:10121000500038462CE710B5401EB0F1807F01D356
:10122000012010BD4FF0E02460610F21601700F035
:1012300076FC0020A06107202061002010BD70B561
:10124000040004D094F83D00002510B106E0012010
:1012500070BD84F83C50204600F022F8242084F829
:101260003D002068C16821F40051C160204600F0B3
:10127000C7FB2068016921F4904101612068416940
:1012800021F02A0141612068C16841F40051C16028
:101290002564202084F83D0084F83E00002070BDC5
:1012A00030B585B000240094019402940394006842
:1012B0001449884224D11448816941F480418161F4
:1012C000816901F480410491816941F004018161E7
:1012D00080690E4D00F0040004904FF400700090FF
:1012E000022001900320039069462846FFF706FA82
:1012F0002815CDE90004694628460294FFF7FEF957
:1013000005B030BD00380140001002400008014027
:101310002DE9F843044690F83D001F4616460D4659
:1013200020284CD1C5B1BEB194F83C00012846D06C
:10133000012084F83C004FF00008C4F840802120D0
:1013400084F83D00FFF7D8FAA6848146E684A068B9
:10135000B0F5805F03D004E00120BDE8F883206988
:1013600028B12E465FF0000584F83C800EE0002690
:10137000FAE78021204600F09FFBA0B9AEB116F835
:10138000010B21684860E08C401EE084E08C4B46F5
:101390004FF0000200970028EBD14FF040012046AB
:1013A00000F08AFB30B10320D7E735F8020BC0F319
:1013B0000800E6E7202084F83D000020CDE7022069
:1013C000CBE7FEE710B5142000F0E0F8800705D168
:1013D0000321BDE81040142000F023B910BD7CB5F6
:1013E0000446002529460D2000F0B1F99320207015
:1013F0002020607001A823460090022219460C208C
:1014000000F01BF9010009D1225C401C5540C0B21C
:101410000428F9D3205CA84200D0022108467CBDF4
:1014200030B585B08DF804008DF80510002001A9B5
:10143000145C0D18401CC0B2AC700628F8D3002014
:101440000C181A5C401CC0B222720428F8D304A8FD
:1014500000900B460C220E2000F0EFF8040004D19F
:10146000082000F093F8000700D4022405B02046BD
:1014700030BD2DE9F0410E460746154604210520F2
:1014800000F026F880210A2000F0CBF8002405E0C7
:10149000395D092000F05BF9641CE4B2B442F7D373
:1014A0000321012000F053F9FF24052000F06EF81D
:1014B000641E14F0FF0401D04007F6D5222000F08E
:1014C00065F82870212000F061F86870BDE8F081AF
:1014D00070B50C46054600F059F820EA040128468C
:1014E000BDE8704000F033B90EB550208DF804000F
:1014F00000208DF805000DF10602022101A8FFF77A
:10150000B8FF02A801AB0090042219460C2000F09D
:1015100094F80EBD10B500F057F88D212A2000F088
:1015200016F93E212B2000F012F91E212D2000F08B
:101530000EF900212C2000F00AF97021262000F07D
:1015400006F94021152000F002F93D21112000F09C
:10155000FEF8BDE81040FFF735BF1CB50C46302142
:1015600021706070A21C02212046FFF782FF01A8B3
:1015700023460090042219460C2000F05EF818B9AA
:10158000BDF80410902900D002201CBD7E2101EA84
:10159000400040F0800000F063B97CB50C46054681
:1015A00007210D2000F0D3F8257001A823460090F4
:1015B000012219460C2000F040F818B9BDF80410BB
:1015C000102900D002207CBD0F21012000F0BFB8FF
:1015D00010B586B093218DF8041070218DF8051098
:1015E000002101AA435C5418491CC9B2A370052903
:1015F000F8D3072101A8D21DFFF73BFF04A801ABD8
:101600000090092219460C2000F017F818B9BDF80F
:101610001000182802D0002006B010BD9DF804006C
:10162000FAE770B50C460546FFF7B0FF40EA040143
:101630002846BDE8704000F08AB82DE9FF5F00271A
:101640000226DDF838A015468B468146B8460C28A0
:1016500005D0B9F10E0F05D11227102001E0772730
:101660003020804647F08001022000F070F8802191
:101670000420FFF72DFF80210A20FFF7D2FF002171
:10168000012000F064F8002406E01BF80410092093
:1016900000F05DF8641CA4B2AC42F6D349460120C8
:1016A00000F055F8B9F10C0F03D180210D20FFF7A0
:1016B000B8FF4FF4FA650420FFF768FF6D1E2D0494
:1016C00004462D0C04D0E00702D114EA080FF2D032
:1016D00080210D20FFF7FCFE35B10620FFF756FFF5
:1016E00010F01B0F04D0022604B03046BDE8F09F76
:1016F00000263C40E00700D00126B9F10C0FF3D1E1
:101700000A20FFF743FF04460C20FFF73FFF10F0CD
:1017100007004FEAC40104D008390844AAF80000C1
:1017200001E0AAF8001024B1102C04D910240025DF
:1017300003E00124FBE7002506E00920FFF726FF70
:10174000039948556D1CADB2A542F6D3CCE77E2275
:1017500002EA400000F09CB830B585B0002414487F
:101760000094019402940394816941F02001816105
:10177000816901F020010491816941F004018161D6
:1017800080690C4D00F004000490002210212846CE
:10179000FFF7ACF8102000900120CDE901040220F1
:1017A000039069462846FEF7A9FF05B030BD00004A
:1017B0000010024000080140104810B50E490160B9
:1017C0004FF48271416000218160C1604FF400726A
:1017D0000161C0E905120822C0E907214162816266
:1017E0000A21C162FFF794FB002803D0BDE8104036
:1017F000FEF76FBF10BD0000003001406C010020FB
:101800000C4810B50A4901604FF4E13141600021F4
:1018100081600C22C160C0E904128161C161FFF7DF
:101820000EFD002803D0BDE81040FEF752BF10BDEA
:1018300000380140C4010020FEE7FEE770470000C9
:101840000EB501238DF804000A20009002AA01A918
:101850000248FFF7EFFB9DF808000EBD6C01002069
:1018600070B50A4D0446002210212846FFF73EF8C5
:101870002046FFF7E5FF0020FFF7E2FF04460122C4
:1018800010212846FFF732F8204670BD00080140BD
:1018900070B50A4C0E460546002210212046FFF77F
:1018A00025F82846FFF7CCFF3046FFF7C9FF204652
:1018B000BDE8704001221021FFF718B80008014070
:1018C00038B50B46009204460022802100F008F84B
:1018D000002804D0606D40F020006065032038BD12
:1018E0002DE9F8431E46914688460446089DFFF7B9
:1018F00003F8401B351AFEF7FFFF0746254800682E
:10190000C0F3CB30684338E0701C37D0FEF7F4FFEB
:10191000C01BA84203D215B1009860B32CE0206828
:10192000416821F0E00141606068B0F5827F0BD131
:10193000A068B0F5004F02D0B0F5806F04D12068E8
:10194000016821F040010160A06AB0F5005F09D193
:101950002068016821F4005101602068016841F4A9
:1019600000510160012084F85100002084F85000EB
:101970000320BDE8F8830025401E009020688168A0
:1019800038EA010004D000214945BDD10020F0E72C
:101990000121F9E7180100207047FEF7B3BF30B509
:1019A0008FB028216846FEF78FFD14210AA8FEF7A4
:1019B0008BFD01210804CDE90010002402940225CA
:1019C0000491CDE907504FF4E01009906846FFF705
:1019D0000FF908B172B6FEE70F20CDE90A054FF402
:1019E0008060CDE90C4002210AA80E94FFF714F89C
:1019F000002801D072B6FEE70FB030BD704700007E
:101A000070B5044600680169E26821F44051114351
:101A100001612169A0680843616908432168CA68B7
:101A200041F20C639A430243CA6020684169A2698B
:101A300021F44071114341611E492068884202D15E
:101A4000FFF790F801E0FFF77DF800EBC00101EB34
:101A50000012606864218000B2FBF0F3B3FBF1F385
:101A60006FF018067343B2FBF0F5B2FBF0F605EB2E
:101A70008305322303EB0515B5FBF1F5B6FBF1F653
:101A800005F0F00505EB0615B2FBF0F6B2FBF0F041
:101A9000B0FBF1F06FF01802504306EB800003EB4F
:101AA0000010B0FBF1F0216800F00F0028448860BE
:101AB00070BD0000003801402DE9F04198461746FE
:101AC0000E460446069D1DE0681C1BD02DB1FEF796
:101AD00013FFA0EB0800A84214D92068C16821F4C4
:101AE000D071C1602068416921F00101416120206D
:101AF00084F83D0084F83E00002084F83C00032078
:101B0000BDE8F0812068006836EA000004D00020BB
:101B1000B842D9D00020F3E70120F9E7FEE7090732
:101B2000090E002804DB00F1E02080F80014704763
:101B300000F00F0000F1E02080F8141D70473038ED
:101B40000A2801D20120704700207047002070470A
:101B500013B54FF6FF73012269460248FFF7D8FB21
:101B600000981CBDC401002086B0FEF7D3FEFFF72D
:101B700016FFFFF7F1FDFFF71FFEFFF741FEFFF72E
:101B8000C9FC524FDFF84091514DDFF848A14FF4A6
:101B900000580226A7F1270441464846FEF79EFE5C
:101BA00066704B492620FFF7F8FC607080B9484802
:101BB0002B786A7848A11030FEF71CFB4449A070CE
:101BC00010314BA0FEF70AFB40215046FEF786FE7F
:101BD0003E482438FFF703FC607090B93B48243836
:101BE000C2788178CDE9001243780278384841A163
:101BF0001030FEF7FFFA3649A07010313CA0FEF716
:101C0000EDFA32482438FFF7E3FC2070021E0AD0B8
:101C10002F483CA11030FEF7EDFA2D49A07010318D
:101C200033A0FEF7DBFA294B3A46243B0B21602018
:101C3000FFF7F6FB6070002840D125490B20FFF725
:101C40008CFC6070002834D128790DF1080CEB79F8
:101C5000AA7969798CE80F00E978A878CDE90001C4
:101C60001B486B782A782AA11030FEF7C3FA18496E
:101C7000A07010311EA0FEF7B1FA287B0DF1080C00
:101C8000EB7BAA7B697B8CE80F00E97AA87ACDE927
:101C900000010F486B7A2A7A1DA11030FEF7AAFACC
:101CA0000B49A070103112A0FEF798FA23A0FEF79E
:101CB00095FA4FF480415046FEF710FEFFF714FCF2
:101CC000C820FEF709FD67E700100140270000204B
:101CD0001C010020000C014053414B3A2030782574
:101CE0003032582C203078253032580A0D00000050
:101CF00025730000434E3A202578257825782578ED
:101D00000D0A000043533A2025640D0A000000002C
:101D100025303258202530325820253032582025A1
:101D20003032582025303258202530325820253086
:101D3000325820253032580D0A0000002D2D2D2D4F
:101D40002D2D2D2D2D2D2D2D2D2D2D2D2D2D2D2DC3
:101D50002D2D2D2D2D2D2D2D2D2D2D2D2D2D2D2DB3
:101D60002D2D2D2D2D2D2D2D2D2D2D2D2D0D0A0013
:101D7000000000000000000001020304060708093B
:101D800000000000010203043031323334353637AD
:101D900038394142434445464030580030313233AF
:101DA00034353637383961626364656640307800AF
:101DB0000400000800000000000000020001000014
:101DC00010000000E41D0008000000201C010000BD
:101DD00028010008001F00081C0100204C0700001B
:101DE0004401000800000000000000FFFFFFFFFFAB
:101DF000FF00000000000000000000FFFFFFFFFFE9
:101E0000FF00000000000000000000FFFFFFFFFFD8
:101E1000FF00000000000000000000FFFFFFFFFFC8
:101E2000FF000000000000000000000000000000B3
:101E300000000000000000000000000000000000A2
:101E40000000000000000000000000000000000092
:101E50000000000000000000000000000000000082
:101E60000000000000000000000000000000000072
:101E70000000000000000000000000000000000062
:101E80000000000000000000000000000000000052
:101E90000000000000000000000000000000000042
:101EA0000000000000000000000000000000000032
:101EB0000000000000000000000000000000000022
:101EC0000000000000000000000000000000000012
:101ED0000000000000000000000000000000000002
:101EE00000000000000000000000000000000000F2
:101EF0000100000010000000000000000024F400B9
:04000005080000ED02
:00000001FF
